{
	"data": {
		"bytecode": {
			"linkReferences": {},
			"object": "608060405234801561001057600080fd5b50610290806100206000396000f300608060405260043610610056576000357c0100000000000000000000000000000000000000000000000000000000900463ffffffff16806265f9b51461005b5780631ae8ab81146100ae5780636790081c146100df575b600080fd5b34801561006757600080fd5b5061007061013e565b6040518082600360200280838360005b8381101561009b578082015181840152602081019050610080565b5050505090500191505060405180910390f35b3480156100ba57600080fd5b506100dd60048036038101908080356000191690602001909291905050506101df565b005b3480156100eb57600080fd5b50610120600480360381019080803573ffffffffffffffffffffffffffffffffffffffff169060200190929190505050610229565b60405180826000191660001916815260200191505060405180910390f35b610146610241565b6060604051908101604052807f6b63686f77000000000000000000000000000000000000000000000000000000600019166000191681526020017f6b63686f77323300000000000000000000000000000000000000000000000000600019166000191681526020017f63330000000000000000000000000000000000000000000000000000000000006000191660001916815250905090565b806000803373ffffffffffffffffffffffffffffffffffffffff1673ffffffffffffffffffffffffffffffffffffffff168152602001908152602001600020816000191690555050565b60006020528060005260406000206000915090505481565b6060604051908101604052806003906020820280388339808201915050905050905600a165627a7a72305820507eda1df23e62af3943b6564a2d866564590b081007931fedb38e4328e8062f0029",
			"opcodes": "PUSH1 0x80 PUSH1 0x40 MSTORE CALLVALUE DUP1 ISZERO PUSH2 0x10 JUMPI PUSH1 0x0 DUP1 REVERT JUMPDEST POP PUSH2 0x290 DUP1 PUSH2 0x20 PUSH1 0x0 CODECOPY PUSH1 0x0 RETURN STOP PUSH1 0x80 PUSH1 0x40 MSTORE PUSH1 0x4 CALLDATASIZE LT PUSH2 0x56 JUMPI PUSH1 0x0 CALLDATALOAD PUSH29 0x100000000000000000000000000000000000000000000000000000000 SWAP1 DIV PUSH4 0xFFFFFFFF AND DUP1 PUSH3 0x65F9B5 EQ PUSH2 0x5B JUMPI DUP1 PUSH4 0x1AE8AB81 EQ PUSH2 0xAE JUMPI DUP1 PUSH4 0x6790081C EQ PUSH2 0xDF JUMPI JUMPDEST PUSH1 0x0 DUP1 REVERT JUMPDEST CALLVALUE DUP1 ISZERO PUSH2 0x67 JUMPI PUSH1 0x0 DUP1 REVERT JUMPDEST POP PUSH2 0x70 PUSH2 0x13E JUMP JUMPDEST PUSH1 0x40 MLOAD DUP1 DUP3 PUSH1 0x3 PUSH1 0x20 MUL DUP1 DUP4 DUP4 PUSH1 0x0 JUMPDEST DUP4 DUP2 LT ISZERO PUSH2 0x9B JUMPI DUP1 DUP3 ADD MLOAD DUP2 DUP5 ADD MSTORE PUSH1 0x20 DUP2 ADD SWAP1 POP PUSH2 0x80 JUMP JUMPDEST POP POP POP POP SWAP1 POP ADD SWAP2 POP POP PUSH1 0x40 MLOAD DUP1 SWAP2 SUB SWAP1 RETURN JUMPDEST CALLVALUE DUP1 ISZERO PUSH2 0xBA JUMPI PUSH1 0x0 DUP1 REVERT JUMPDEST POP PUSH2 0xDD PUSH1 0x4 DUP1 CALLDATASIZE SUB DUP2 ADD SWAP1 DUP1 DUP1 CALLDATALOAD PUSH1 0x0 NOT AND SWAP1 PUSH1 0x20 ADD SWAP1 SWAP3 SWAP2 SWAP1 POP POP POP PUSH2 0x1DF JUMP JUMPDEST STOP JUMPDEST CALLVALUE DUP1 ISZERO PUSH2 0xEB JUMPI PUSH1 0x0 DUP1 REVERT JUMPDEST POP PUSH2 0x120 PUSH1 0x4 DUP1 CALLDATASIZE SUB DUP2 ADD SWAP1 DUP1 DUP1 CALLDATALOAD PUSH20 0xFFFFFFFFFFFFFFFFFFFFFFFFFFFFFFFFFFFFFFFF AND SWAP1 PUSH1 0x20 ADD SWAP1 SWAP3 SWAP2 SWAP1 POP POP POP PUSH2 0x229 JUMP JUMPDEST PUSH1 0x40 MLOAD DUP1 DUP3 PUSH1 0x0 NOT AND PUSH1 0x0 NOT AND DUP2 MSTORE PUSH1 0x20 ADD SWAP2 POP POP PUSH1 0x40 MLOAD DUP1 SWAP2 SUB SWAP1 RETURN JUMPDEST PUSH2 0x146 PUSH2 0x241 JUMP JUMPDEST PUSH1 0x60 PUSH1 0x40 MLOAD SWAP1 DUP2 ADD PUSH1 0x40 MSTORE DUP1 PUSH32 0x6B63686F77000000000000000000000000000000000000000000000000000000 PUSH1 0x0 NOT AND PUSH1 0x0 NOT AND DUP2 MSTORE PUSH1 0x20 ADD PUSH32 0x6B63686F77323300000000000000000000000000000000000000000000000000 PUSH1 0x0 NOT AND PUSH1 0x0 NOT AND DUP2 MSTORE PUSH1 0x20 ADD PUSH32 0x6333000000000000000000000000000000000000000000000000000000000000 PUSH1 0x0 NOT AND PUSH1 0x0 NOT AND DUP2 MSTORE POP SWAP1 POP SWAP1 JUMP JUMPDEST DUP1 PUSH1 0x0 DUP1 CALLER PUSH20 0xFFFFFFFFFFFFFFFFFFFFFFFFFFFFFFFFFFFFFFFF AND PUSH20 0xFFFFFFFFFFFFFFFFFFFFFFFFFFFFFFFFFFFFFFFF AND DUP2 MSTORE PUSH1 0x20 ADD SWAP1 DUP2 MSTORE PUSH1 0x20 ADD PUSH1 0x0 KECCAK256 DUP2 PUSH1 0x0 NOT AND SWAP1 SSTORE POP POP JUMP JUMPDEST PUSH1 0x0 PUSH1 0x20 MSTORE DUP1 PUSH1 0x0 MSTORE PUSH1 0x40 PUSH1 0x0 KECCAK256 PUSH1 0x0 SWAP2 POP SWAP1 POP SLOAD DUP2 JUMP JUMPDEST PUSH1 0x60 PUSH1 0x40 MLOAD SWAP1 DUP2 ADD PUSH1 0x40 MSTORE DUP1 PUSH1 0x3 SWAP1 PUSH1 0x20 DUP3 MUL DUP1 CODESIZE DUP4 CODECOPY DUP1 DUP3 ADD SWAP2 POP POP SWAP1 POP POP SWAP1 JUMP STOP LOG1 PUSH6 0x627A7A723058 KECCAK256 POP PUSH31 0xDA1DF23E62AF3943B6564A2D866564590B081007931FEDB38E4328E8062F00 0x29 "
		},
		"gasEstimates": {
			"creation": {
				"codeDepositCost": "131200",
				"executionCost": "177",
				"totalCost": "131377"
			},
			"external": {
				"getBytes32ArrayForInput()": "infinite",
				"nicknameOf(address)": "594",
				"setNickname(bytes32)": "20334"
			}
		},
		"methodIdentifiers": {
			"getBytes32ArrayForInput()": "0065f9b5",
			"nicknameOf(address)": "6790081c",
			"setNickname(bytes32)": "1ae8ab81"
		}
	},
	"abi": [
		{
			"constant": true,
			"inputs": [],
			"name": "getBytes32ArrayForInput",
			"outputs": [
				{
					"name": "b32Arr",
					"type": "bytes32[3]"
				}
			],
			"payable": false,
			"stateMutability": "view",
			"type": "function"
		},
		{
			"constant": false,
			"inputs": [
				{
					"name": "nickname",
					"type": "bytes32"
				}
			],
			"name": "setNickname",
			"outputs": [],
			"payable": false,
			"stateMutability": "nonpayable",
			"type": "function"
		},
		{
			"constant": true,
			"inputs": [
				{
					"name": "",
					"type": "address"
				}
			],
			"name": "nicknameOf",
			"outputs": [
				{
					"name": "",
					"type": "bytes32"
				}
			],
			"payable": false,
			"stateMutability": "view",
			"type": "function"
		}
	]
}