{
	"data": {
		"bytecode": {
			"linkReferences": {},
			"object": "608060405234801561001057600080fd5b506102b7806100206000396000f30060806040526004361061004c576000357c0100000000000000000000000000000000000000000000000000000000900463ffffffff168063380c7a6714610051578063b2fa1c9e14610068575b600080fd5b34801561005d57600080fd5b50610066610097565b005b34801561007457600080fd5b5061007d6100db565b604051808215151515815260200191505060405180910390f35b6100a0336100ed565b15156100ab57600080fd5b6100b4336101bf565b15156100bf57600080fd5b60016000806101000a81548160ff021916908315150217905550565b6000809054906101000a900460ff1681565b60007f736d617278000000000000000000000000000000000000000000000000000000600019168273ffffffffffffffffffffffffffffffffffffffff166306fdde036040518163ffffffff167c0100000000000000000000000000000000000000000000000000000000028152600401602060405180830381600087803b15801561017857600080fd5b505af115801561018c573d6000803e3d6000fd5b505050506040513d60208110156101a257600080fd5b810190808051906020019092919050505060001916149050919050565b6000806000806000856c010000000000000000000000000293506f0badc0de00000000000000000000000092506f0fffffff0000000000000000000000009150600090505b602281101561027d57826bffffffffffffffffffffffff19168285166bffffffffffffffffffffffff1916141561023e5760019450610282565b6004826bffffffffffffffffffffffff19169060020a0291506004836bffffffffffffffffffffffff19169060020a0292508080600101915050610204565b600094505b505050509190505600a165627a7a72305820c256d48288af04676959d47204f7725ab0e2c0a1819660a308f458794be5c2a20029",
			"opcodes": "PUSH1 0x80 PUSH1 0x40 MSTORE CALLVALUE DUP1 ISZERO PUSH2 0x10 JUMPI PUSH1 0x0 DUP1 REVERT JUMPDEST POP PUSH2 0x2B7 DUP1 PUSH2 0x20 PUSH1 0x0 CODECOPY PUSH1 0x0 RETURN STOP PUSH1 0x80 PUSH1 0x40 MSTORE PUSH1 0x4 CALLDATASIZE LT PUSH2 0x4C JUMPI PUSH1 0x0 CALLDATALOAD PUSH29 0x100000000000000000000000000000000000000000000000000000000 SWAP1 DIV PUSH4 0xFFFFFFFF AND DUP1 PUSH4 0x380C7A67 EQ PUSH2 0x51 JUMPI DUP1 PUSH4 0xB2FA1C9E EQ PUSH2 0x68 JUMPI JUMPDEST PUSH1 0x0 DUP1 REVERT JUMPDEST CALLVALUE DUP1 ISZERO PUSH2 0x5D JUMPI PUSH1 0x0 DUP1 REVERT JUMPDEST POP PUSH2 0x66 PUSH2 0x97 JUMP JUMPDEST STOP JUMPDEST CALLVALUE DUP1 ISZERO PUSH2 0x74 JUMPI PUSH1 0x0 DUP1 REVERT JUMPDEST POP PUSH2 0x7D PUSH2 0xDB JUMP JUMPDEST PUSH1 0x40 MLOAD DUP1 DUP3 ISZERO ISZERO ISZERO ISZERO DUP2 MSTORE PUSH1 0x20 ADD SWAP2 POP POP PUSH1 0x40 MLOAD DUP1 SWAP2 SUB SWAP1 RETURN JUMPDEST PUSH2 0xA0 CALLER PUSH2 0xED JUMP JUMPDEST ISZERO ISZERO PUSH2 0xAB JUMPI PUSH1 0x0 DUP1 REVERT JUMPDEST PUSH2 0xB4 CALLER PUSH2 0x1BF JUMP JUMPDEST ISZERO ISZERO PUSH2 0xBF JUMPI PUSH1 0x0 DUP1 REVERT JUMPDEST PUSH1 0x1 PUSH1 0x0 DUP1 PUSH2 0x100 EXP DUP2 SLOAD DUP2 PUSH1 0xFF MUL NOT AND SWAP1 DUP4 ISZERO ISZERO MUL OR SWAP1 SSTORE POP JUMP JUMPDEST PUSH1 0x0 DUP1 SWAP1 SLOAD SWAP1 PUSH2 0x100 EXP SWAP1 DIV PUSH1 0xFF AND DUP2 JUMP JUMPDEST PUSH1 0x0 PUSH32 0x736D617278000000000000000000000000000000000000000000000000000000 PUSH1 0x0 NOT AND DUP3 PUSH20 0xFFFFFFFFFFFFFFFFFFFFFFFFFFFFFFFFFFFFFFFF AND PUSH4 0x6FDDE03 PUSH1 0x40 MLOAD DUP2 PUSH4 0xFFFFFFFF AND PUSH29 0x100000000000000000000000000000000000000000000000000000000 MUL DUP2 MSTORE PUSH1 0x4 ADD PUSH1 0x20 PUSH1 0x40 MLOAD DUP1 DUP4 SUB DUP2 PUSH1 0x0 DUP8 DUP1 EXTCODESIZE ISZERO DUP1 ISZERO PUSH2 0x178 JUMPI PUSH1 0x0 DUP1 REVERT JUMPDEST POP GAS CALL ISZERO DUP1 ISZERO PUSH2 0x18C JUMPI RETURNDATASIZE PUSH1 0x0 DUP1 RETURNDATACOPY RETURNDATASIZE PUSH1 0x0 REVERT JUMPDEST POP POP POP POP PUSH1 0x40 MLOAD RETURNDATASIZE PUSH1 0x20 DUP2 LT ISZERO PUSH2 0x1A2 JUMPI PUSH1 0x0 DUP1 REVERT JUMPDEST DUP2 ADD SWAP1 DUP1 DUP1 MLOAD SWAP1 PUSH1 0x20 ADD SWAP1 SWAP3 SWAP2 SWAP1 POP POP POP PUSH1 0x0 NOT AND EQ SWAP1 POP SWAP2 SWAP1 POP JUMP JUMPDEST PUSH1 0x0 DUP1 PUSH1 0x0 DUP1 PUSH1 0x0 DUP6 PUSH13 0x1000000000000000000000000 MUL SWAP4 POP PUSH16 0xBADC0DE000000000000000000000000 SWAP3 POP PUSH16 0xFFFFFFF000000000000000000000000 SWAP2 POP PUSH1 0x0 SWAP1 POP JUMPDEST PUSH1 0x22 DUP2 LT ISZERO PUSH2 0x27D JUMPI DUP3 PUSH12 0xFFFFFFFFFFFFFFFFFFFFFFFF NOT AND DUP3 DUP6 AND PUSH12 0xFFFFFFFFFFFFFFFFFFFFFFFF NOT AND EQ ISZERO PUSH2 0x23E JUMPI PUSH1 0x1 SWAP5 POP PUSH2 0x282 JUMP JUMPDEST PUSH1 0x4 DUP3 PUSH12 0xFFFFFFFFFFFFFFFFFFFFFFFF NOT AND SWAP1 PUSH1 0x2 EXP MUL SWAP2 POP PUSH1 0x4 DUP4 PUSH12 0xFFFFFFFFFFFFFFFFFFFFFFFF NOT AND SWAP1 PUSH1 0x2 EXP MUL SWAP3 POP DUP1 DUP1 PUSH1 0x1 ADD SWAP2 POP POP PUSH2 0x204 JUMP JUMPDEST PUSH1 0x0 SWAP5 POP JUMPDEST POP POP POP POP SWAP2 SWAP1 POP JUMP STOP LOG1 PUSH6 0x627A7A723058 KECCAK256 0xc2 JUMP 0xd4 DUP3 DUP9 0xaf DIV PUSH8 0x6959D47204F7725A 0xb0 0xe2 0xc0 LOG1 DUP2 SWAP7 PUSH1 0xA3 ADDMOD DELEGATECALL PC PUSH26 0x4BE5C2A200290000000000000000000000000000000000000000 "
		},
		"gasEstimates": {
			"creation": {
				"codeDepositCost": "139000",
				"executionCost": "183",
				"totalCost": "139183"
			},
			"external": {
				"authenticate()": "infinite",
				"isComplete()": "464"
			},
			"internal": {
				"isBadCode(address)": "infinite",
				"isSmarx(address)": "infinite"
			}
		},
		"methodIdentifiers": {
			"authenticate()": "380c7a67",
			"isComplete()": "b2fa1c9e"
		}
	},
	"abi": [
		{
			"constant": false,
			"inputs": [],
			"name": "authenticate",
			"outputs": [],
			"payable": false,
			"stateMutability": "nonpayable",
			"type": "function"
		},
		{
			"constant": true,
			"inputs": [],
			"name": "isComplete",
			"outputs": [
				{
					"name": "",
					"type": "bool"
				}
			],
			"payable": false,
			"stateMutability": "view",
			"type": "function"
		}
	]
}