{
	"data": {
		"bytecode": {
			"linkReferences": {},
			"object": "608060405234801561001057600080fd5b5060c88061001f6000396000f300608060405260043610603f576000357c0100000000000000000000000000000000000000000000000000000000900463ffffffff16806306fdde03146044575b600080fd5b348015604f57600080fd5b5060566074565b60405180826000191660001916815260200191505060405180910390f35b60007f736d6172780000000000000000000000000000000000000000000000000000009050905600a165627a7a723058208009d4e55f552fdc2ccc96cf406af5ba20c22cb0a2830fb1f51d086fe2d0a9000029",
			"opcodes": "PUSH1 0x80 PUSH1 0x40 MSTORE CALLVALUE DUP1 ISZERO PUSH2 0x10 JUMPI PUSH1 0x0 DUP1 REVERT JUMPDEST POP PUSH1 0xC8 DUP1 PUSH2 0x1F PUSH1 0x0 CODECOPY PUSH1 0x0 RETURN STOP PUSH1 0x80 PUSH1 0x40 MSTORE PUSH1 0x4 CALLDATASIZE LT PUSH1 0x3F JUMPI PUSH1 0x0 CALLDATALOAD PUSH29 0x100000000000000000000000000000000000000000000000000000000 SWAP1 DIV PUSH4 0xFFFFFFFF AND DUP1 PUSH4 0x6FDDE03 EQ PUSH1 0x44 JUMPI JUMPDEST PUSH1 0x0 DUP1 REVERT JUMPDEST CALLVALUE DUP1 ISZERO PUSH1 0x4F JUMPI PUSH1 0x0 DUP1 REVERT JUMPDEST POP PUSH1 0x56 PUSH1 0x74 JUMP JUMPDEST PUSH1 0x40 MLOAD DUP1 DUP3 PUSH1 0x0 NOT AND PUSH1 0x0 NOT AND DUP2 MSTORE PUSH1 0x20 ADD SWAP2 POP POP PUSH1 0x40 MLOAD DUP1 SWAP2 SUB SWAP1 RETURN JUMPDEST PUSH1 0x0 PUSH32 0x736D617278000000000000000000000000000000000000000000000000000000 SWAP1 POP SWAP1 JUMP STOP LOG1 PUSH6 0x627A7A723058 KECCAK256 DUP1 MULMOD 0xd4 0xe5 0x5f SSTORE 0x2f 0xdc 0x2c 0xcc SWAP7 0xcf BLOCKHASH PUSH11 0xF5BA20C22CB0A2830FB1F5 SAR ADDMOD PUSH16 0xE2D0A900002900000000000000000000 "
		},
		"gasEstimates": {
			"creation": {
				"codeDepositCost": "40000",
				"executionCost": "93",
				"totalCost": "40093"
			},
			"external": {
				"name()": "220"
			}
		},
		"methodIdentifiers": {
			"name()": "06fdde03"
		}
	},
	"abi": [
		{
			"constant": true,
			"inputs": [],
			"name": "name",
			"outputs": [
				{
					"name": "",
					"type": "bytes32"
				}
			],
			"payable": false,
			"stateMutability": "view",
			"type": "function"
		}
	]
}