{
	"data": {
		"bytecode": {
			"linkReferences": {},
			"object": "608060405273c2f0f4418bc30aa83816b4e106334458c46b92f16000806101000a81548173ffffffffffffffffffffffffffffffffffffffff021916908373ffffffffffffffffffffffffffffffffffffffff16021790555034801561006457600080fd5b506103b0806100746000396000f30060806040526004361061006d576000357c0100000000000000000000000000000000000000000000000000000000900463ffffffff1680631aa3a008146100725780634ba4c16b1461007c5780635bf96c411461009f578063b2fa1c9e146100a9578063b7d7cb93146100d8575b600080fd5b61007a610129565b005b61009d600480360381019080803560ff16906020019092919050505061025e565b005b6100a7610308565b005b3480156100b557600080fd5b506100be610320565b604051808215151515815260200191505060405180910390f35b3480156100e457600080fd5b5061010d6004803603810190808035906020019092919080359060200190929190505050610341565b604051808260ff1660ff16815260200191505060405180910390f35b6000670de0b6b3a76400003414151561014157600080fd5b6001430340426040518083600019166000191681526020018281526020019250505060405180910390206001900490506000809054906101000a900473ffffffffffffffffffffffffffffffffffffffff1673ffffffffffffffffffffffffffffffffffffffff1660405180807f67756573732875696e7438290000000000000000000000000000000000000000815250600c01905060405180910390207c01000000000000000000000000000000000000000000000000000000009004826040518263ffffffff167c0100000000000000000000000000000000000000000000000000000000028152600401808260ff1660ff1681526020019150506000604051808303816000875af192505050151561025b57600080fd5b50565b6000670de0b6b3a76400003414151561027657600080fd5b6001430340426040518083600019166000191681526020018281526020019250505060405180910390206001900490508060ff168260ff161415610304573373ffffffffffffffffffffffffffffffffffffffff166108fc671bc16d674ec800009081150290604051600060405180830381858888f19350505050158015610302573d6000803e3d6000fd5b505b5050565b670de0b6b3a76400003414151561031e57600080fd5b565b6000803073ffffffffffffffffffffffffffffffffffffffff163114905090565b60008060006001850340905080846040518083600019166000191681526020018281526020019250505060405180910390206001900491508192505050929150505600a165627a7a7230582008bdc9e0c44a79d251dc5631e2dfb2a244006d0ae76a0b81c4bc11cb343ac3350029",
			"opcodes": "PUSH1 0x80 PUSH1 0x40 MSTORE PUSH20 0xC2F0F4418BC30AA83816B4E106334458C46B92F1 PUSH1 0x0 DUP1 PUSH2 0x100 EXP DUP2 SLOAD DUP2 PUSH20 0xFFFFFFFFFFFFFFFFFFFFFFFFFFFFFFFFFFFFFFFF MUL NOT AND SWAP1 DUP4 PUSH20 0xFFFFFFFFFFFFFFFFFFFFFFFFFFFFFFFFFFFFFFFF AND MUL OR SWAP1 SSTORE POP CALLVALUE DUP1 ISZERO PUSH2 0x64 JUMPI PUSH1 0x0 DUP1 REVERT JUMPDEST POP PUSH2 0x3B0 DUP1 PUSH2 0x74 PUSH1 0x0 CODECOPY PUSH1 0x0 RETURN STOP PUSH1 0x80 PUSH1 0x40 MSTORE PUSH1 0x4 CALLDATASIZE LT PUSH2 0x6D JUMPI PUSH1 0x0 CALLDATALOAD PUSH29 0x100000000000000000000000000000000000000000000000000000000 SWAP1 DIV PUSH4 0xFFFFFFFF AND DUP1 PUSH4 0x1AA3A008 EQ PUSH2 0x72 JUMPI DUP1 PUSH4 0x4BA4C16B EQ PUSH2 0x7C JUMPI DUP1 PUSH4 0x5BF96C41 EQ PUSH2 0x9F JUMPI DUP1 PUSH4 0xB2FA1C9E EQ PUSH2 0xA9 JUMPI DUP1 PUSH4 0xB7D7CB93 EQ PUSH2 0xD8 JUMPI JUMPDEST PUSH1 0x0 DUP1 REVERT JUMPDEST PUSH2 0x7A PUSH2 0x129 JUMP JUMPDEST STOP JUMPDEST PUSH2 0x9D PUSH1 0x4 DUP1 CALLDATASIZE SUB DUP2 ADD SWAP1 DUP1 DUP1 CALLDATALOAD PUSH1 0xFF AND SWAP1 PUSH1 0x20 ADD SWAP1 SWAP3 SWAP2 SWAP1 POP POP POP PUSH2 0x25E JUMP JUMPDEST STOP JUMPDEST PUSH2 0xA7 PUSH2 0x308 JUMP JUMPDEST STOP JUMPDEST CALLVALUE DUP1 ISZERO PUSH2 0xB5 JUMPI PUSH1 0x0 DUP1 REVERT JUMPDEST POP PUSH2 0xBE PUSH2 0x320 JUMP JUMPDEST PUSH1 0x40 MLOAD DUP1 DUP3 ISZERO ISZERO ISZERO ISZERO DUP2 MSTORE PUSH1 0x20 ADD SWAP2 POP POP PUSH1 0x40 MLOAD DUP1 SWAP2 SUB SWAP1 RETURN JUMPDEST CALLVALUE DUP1 ISZERO PUSH2 0xE4 JUMPI PUSH1 0x0 DUP1 REVERT JUMPDEST POP PUSH2 0x10D PUSH1 0x4 DUP1 CALLDATASIZE SUB DUP2 ADD SWAP1 DUP1 DUP1 CALLDATALOAD SWAP1 PUSH1 0x20 ADD SWAP1 SWAP3 SWAP2 SWAP1 DUP1 CALLDATALOAD SWAP1 PUSH1 0x20 ADD SWAP1 SWAP3 SWAP2 SWAP1 POP POP POP PUSH2 0x341 JUMP JUMPDEST PUSH1 0x40 MLOAD DUP1 DUP3 PUSH1 0xFF AND PUSH1 0xFF AND DUP2 MSTORE PUSH1 0x20 ADD SWAP2 POP POP PUSH1 0x40 MLOAD DUP1 SWAP2 SUB SWAP1 RETURN JUMPDEST PUSH1 0x0 PUSH8 0xDE0B6B3A7640000 CALLVALUE EQ ISZERO ISZERO PUSH2 0x141 JUMPI PUSH1 0x0 DUP1 REVERT JUMPDEST PUSH1 0x1 NUMBER SUB BLOCKHASH TIMESTAMP PUSH1 0x40 MLOAD DUP1 DUP4 PUSH1 0x0 NOT AND PUSH1 0x0 NOT AND DUP2 MSTORE PUSH1 0x20 ADD DUP3 DUP2 MSTORE PUSH1 0x20 ADD SWAP3 POP POP POP PUSH1 0x40 MLOAD DUP1 SWAP2 SUB SWAP1 KECCAK256 PUSH1 0x1 SWAP1 DIV SWAP1 POP PUSH1 0x0 DUP1 SWAP1 SLOAD SWAP1 PUSH2 0x100 EXP SWAP1 DIV PUSH20 0xFFFFFFFFFFFFFFFFFFFFFFFFFFFFFFFFFFFFFFFF AND PUSH20 0xFFFFFFFFFFFFFFFFFFFFFFFFFFFFFFFFFFFFFFFF AND PUSH1 0x40 MLOAD DUP1 DUP1 PUSH32 0x67756573732875696E7438290000000000000000000000000000000000000000 DUP2 MSTORE POP PUSH1 0xC ADD SWAP1 POP PUSH1 0x40 MLOAD DUP1 SWAP2 SUB SWAP1 KECCAK256 PUSH29 0x100000000000000000000000000000000000000000000000000000000 SWAP1 DIV DUP3 PUSH1 0x40 MLOAD DUP3 PUSH4 0xFFFFFFFF AND PUSH29 0x100000000000000000000000000000000000000000000000000000000 MUL DUP2 MSTORE PUSH1 0x4 ADD DUP1 DUP3 PUSH1 0xFF AND PUSH1 0xFF AND DUP2 MSTORE PUSH1 0x20 ADD SWAP2 POP POP PUSH1 0x0 PUSH1 0x40 MLOAD DUP1 DUP4 SUB DUP2 PUSH1 0x0 DUP8 GAS CALL SWAP3 POP POP POP ISZERO ISZERO PUSH2 0x25B JUMPI PUSH1 0x0 DUP1 REVERT JUMPDEST POP JUMP JUMPDEST PUSH1 0x0 PUSH8 0xDE0B6B3A7640000 CALLVALUE EQ ISZERO ISZERO PUSH2 0x276 JUMPI PUSH1 0x0 DUP1 REVERT JUMPDEST PUSH1 0x1 NUMBER SUB BLOCKHASH TIMESTAMP PUSH1 0x40 MLOAD DUP1 DUP4 PUSH1 0x0 NOT AND PUSH1 0x0 NOT AND DUP2 MSTORE PUSH1 0x20 ADD DUP3 DUP2 MSTORE PUSH1 0x20 ADD SWAP3 POP POP POP PUSH1 0x40 MLOAD DUP1 SWAP2 SUB SWAP1 KECCAK256 PUSH1 0x1 SWAP1 DIV SWAP1 POP DUP1 PUSH1 0xFF AND DUP3 PUSH1 0xFF AND EQ ISZERO PUSH2 0x304 JUMPI CALLER PUSH20 0xFFFFFFFFFFFFFFFFFFFFFFFFFFFFFFFFFFFFFFFF AND PUSH2 0x8FC PUSH8 0x1BC16D674EC80000 SWAP1 DUP2 ISZERO MUL SWAP1 PUSH1 0x40 MLOAD PUSH1 0x0 PUSH1 0x40 MLOAD DUP1 DUP4 SUB DUP2 DUP6 DUP9 DUP9 CALL SWAP4 POP POP POP POP ISZERO DUP1 ISZERO PUSH2 0x302 JUMPI RETURNDATASIZE PUSH1 0x0 DUP1 RETURNDATACOPY RETURNDATASIZE PUSH1 0x0 REVERT JUMPDEST POP JUMPDEST POP POP JUMP JUMPDEST PUSH8 0xDE0B6B3A7640000 CALLVALUE EQ ISZERO ISZERO PUSH2 0x31E JUMPI PUSH1 0x0 DUP1 REVERT JUMPDEST JUMP JUMPDEST PUSH1 0x0 DUP1 ADDRESS PUSH20 0xFFFFFFFFFFFFFFFFFFFFFFFFFFFFFFFFFFFFFFFF AND BALANCE EQ SWAP1 POP SWAP1 JUMP JUMPDEST PUSH1 0x0 DUP1 PUSH1 0x0 PUSH1 0x1 DUP6 SUB BLOCKHASH SWAP1 POP DUP1 DUP5 PUSH1 0x40 MLOAD DUP1 DUP4 PUSH1 0x0 NOT AND PUSH1 0x0 NOT AND DUP2 MSTORE PUSH1 0x20 ADD DUP3 DUP2 MSTORE PUSH1 0x20 ADD SWAP3 POP POP POP PUSH1 0x40 MLOAD DUP1 SWAP2 SUB SWAP1 KECCAK256 PUSH1 0x1 SWAP1 DIV SWAP2 POP DUP2 SWAP3 POP POP POP SWAP3 SWAP2 POP POP JUMP STOP LOG1 PUSH6 0x627A7A723058 KECCAK256 ADDMOD 0xbd 0xc9 0xe0 0xc4 0x4a PUSH26 0xD251DC5631E2DFB2A244006D0AE76A0B81C4BC11CB343AC33500 0x29 "
		},
		"gasEstimates": {
			"creation": {
				"codeDepositCost": "188800",
				"executionCost": "20499",
				"totalCost": "209299"
			},
			"external": {
				"GuessTheNewNumberChallenge()": "181",
				"bruteForce(uint256,uint256)": "587",
				"guess(uint8)": "infinite",
				"isComplete()": "691",
				"register()": "infinite"
			}
		},
		"methodIdentifiers": {
			"GuessTheNewNumberChallenge()": "5bf96c41",
			"bruteForce(uint256,uint256)": "b7d7cb93",
			"guess(uint8)": "4ba4c16b",
			"isComplete()": "b2fa1c9e",
			"register()": "1aa3a008"
		}
	},
	"abi": [
		{
			"constant": false,
			"inputs": [],
			"name": "register",
			"outputs": [],
			"payable": true,
			"stateMutability": "payable",
			"type": "function"
		},
		{
			"constant": false,
			"inputs": [
				{
					"name": "n",
					"type": "uint8"
				}
			],
			"name": "guess",
			"outputs": [],
			"payable": true,
			"stateMutability": "payable",
			"type": "function"
		},
		{
			"constant": false,
			"inputs": [],
			"name": "GuessTheNewNumberChallenge",
			"outputs": [],
			"payable": true,
			"stateMutability": "payable",
			"type": "function"
		},
		{
			"constant": true,
			"inputs": [],
			"name": "isComplete",
			"outputs": [
				{
					"name": "",
					"type": "bool"
				}
			],
			"payable": false,
			"stateMutability": "view",
			"type": "function"
		},
		{
			"constant": true,
			"inputs": [
				{
					"name": "blockNumGuess",
					"type": "uint256"
				},
				{
					"name": "thisNowGuess",
					"type": "uint256"
				}
			],
			"name": "bruteForce",
			"outputs": [
				{
					"name": "",
					"type": "uint8"
				}
			],
			"payable": false,
			"stateMutability": "view",
			"type": "function"
		}
	]
}