{
	"data": {
		"bytecode": {
			"linkReferences": {},
			"object": "60806040527fdb81b4d58595fbbbb592d3661a34cdca14d7ab379441400cbfa1b78bc447c365600102600090600019169055670de0b6b3a76400003414151561004757600080fd5b61026e806100566000396000f300608060405260043610610057576000357c0100000000000000000000000000000000000000000000000000000000900463ffffffff1680634ba4c16b1461005c578063b2fa1c9e1461007f578063c1bb2493146100ae575b600080fd5b61007d600480360381019080803560ff1690602001909291905050506100df565b005b34801561008b57600080fd5b50610094610197565b604051808215151515815260200191505060405180910390f35b3480156100ba57600080fd5b506100c36101b8565b604051808260ff1660ff16815260200191505060405180910390f35b670de0b6b3a7640000341415156100f557600080fd5b6000546000191681604051808260ff1660ff167f01000000000000000000000000000000000000000000000000000000000000000281526001019150506040518091039020600019161415610194573373ffffffffffffffffffffffffffffffffffffffff166108fc671bc16d674ec800009081150290604051600060405180830381858888f19350505050158015610192573d6000803e3d6000fd5b505b50565b6000803073ffffffffffffffffffffffffffffffffffffffff163114905090565b600080600060ff9050600091505b8060ff168260ff16111515610239576000546000191682604051808260ff1660ff167f0100000000000000000000000000000000000000000000000000000000000000028152600101915050604051809103902060001916141561022c5781925061023d565b81806001019250506101c6565b8192505b5050905600a165627a7a7230582016e1d73040bdf778582ca56d9aec18cac9b2df990b470840b39ad968373064b20029",
			"opcodes": "PUSH1 0x80 PUSH1 0x40 MSTORE PUSH32 0xDB81B4D58595FBBBB592D3661A34CDCA14D7AB379441400CBFA1B78BC447C365 PUSH1 0x1 MUL PUSH1 0x0 SWAP1 PUSH1 0x0 NOT AND SWAP1 SSTORE PUSH8 0xDE0B6B3A7640000 CALLVALUE EQ ISZERO ISZERO PUSH2 0x47 JUMPI PUSH1 0x0 DUP1 REVERT JUMPDEST PUSH2 0x26E DUP1 PUSH2 0x56 PUSH1 0x0 CODECOPY PUSH1 0x0 RETURN STOP PUSH1 0x80 PUSH1 0x40 MSTORE PUSH1 0x4 CALLDATASIZE LT PUSH2 0x57 JUMPI PUSH1 0x0 CALLDATALOAD PUSH29 0x100000000000000000000000000000000000000000000000000000000 SWAP1 DIV PUSH4 0xFFFFFFFF AND DUP1 PUSH4 0x4BA4C16B EQ PUSH2 0x5C JUMPI DUP1 PUSH4 0xB2FA1C9E EQ PUSH2 0x7F JUMPI DUP1 PUSH4 0xC1BB2493 EQ PUSH2 0xAE JUMPI JUMPDEST PUSH1 0x0 DUP1 REVERT JUMPDEST PUSH2 0x7D PUSH1 0x4 DUP1 CALLDATASIZE SUB DUP2 ADD SWAP1 DUP1 DUP1 CALLDATALOAD PUSH1 0xFF AND SWAP1 PUSH1 0x20 ADD SWAP1 SWAP3 SWAP2 SWAP1 POP POP POP PUSH2 0xDF JUMP JUMPDEST STOP JUMPDEST CALLVALUE DUP1 ISZERO PUSH2 0x8B JUMPI PUSH1 0x0 DUP1 REVERT JUMPDEST POP PUSH2 0x94 PUSH2 0x197 JUMP JUMPDEST PUSH1 0x40 MLOAD DUP1 DUP3 ISZERO ISZERO ISZERO ISZERO DUP2 MSTORE PUSH1 0x20 ADD SWAP2 POP POP PUSH1 0x40 MLOAD DUP1 SWAP2 SUB SWAP1 RETURN JUMPDEST CALLVALUE DUP1 ISZERO PUSH2 0xBA JUMPI PUSH1 0x0 DUP1 REVERT JUMPDEST POP PUSH2 0xC3 PUSH2 0x1B8 JUMP JUMPDEST PUSH1 0x40 MLOAD DUP1 DUP3 PUSH1 0xFF AND PUSH1 0xFF AND DUP2 MSTORE PUSH1 0x20 ADD SWAP2 POP POP PUSH1 0x40 MLOAD DUP1 SWAP2 SUB SWAP1 RETURN JUMPDEST PUSH8 0xDE0B6B3A7640000 CALLVALUE EQ ISZERO ISZERO PUSH2 0xF5 JUMPI PUSH1 0x0 DUP1 REVERT JUMPDEST PUSH1 0x0 SLOAD PUSH1 0x0 NOT AND DUP2 PUSH1 0x40 MLOAD DUP1 DUP3 PUSH1 0xFF AND PUSH1 0xFF AND PUSH32 0x100000000000000000000000000000000000000000000000000000000000000 MUL DUP2 MSTORE PUSH1 0x1 ADD SWAP2 POP POP PUSH1 0x40 MLOAD DUP1 SWAP2 SUB SWAP1 KECCAK256 PUSH1 0x0 NOT AND EQ ISZERO PUSH2 0x194 JUMPI CALLER PUSH20 0xFFFFFFFFFFFFFFFFFFFFFFFFFFFFFFFFFFFFFFFF AND PUSH2 0x8FC PUSH8 0x1BC16D674EC80000 SWAP1 DUP2 ISZERO MUL SWAP1 PUSH1 0x40 MLOAD PUSH1 0x0 PUSH1 0x40 MLOAD DUP1 DUP4 SUB DUP2 DUP6 DUP9 DUP9 CALL SWAP4 POP POP POP POP ISZERO DUP1 ISZERO PUSH2 0x192 JUMPI RETURNDATASIZE PUSH1 0x0 DUP1 RETURNDATACOPY RETURNDATASIZE PUSH1 0x0 REVERT JUMPDEST POP JUMPDEST POP JUMP JUMPDEST PUSH1 0x0 DUP1 ADDRESS PUSH20 0xFFFFFFFFFFFFFFFFFFFFFFFFFFFFFFFFFFFFFFFF AND BALANCE EQ SWAP1 POP SWAP1 JUMP JUMPDEST PUSH1 0x0 DUP1 PUSH1 0x0 PUSH1 0xFF SWAP1 POP PUSH1 0x0 SWAP2 POP JUMPDEST DUP1 PUSH1 0xFF AND DUP3 PUSH1 0xFF AND GT ISZERO ISZERO PUSH2 0x239 JUMPI PUSH1 0x0 SLOAD PUSH1 0x0 NOT AND DUP3 PUSH1 0x40 MLOAD DUP1 DUP3 PUSH1 0xFF AND PUSH1 0xFF AND PUSH32 0x100000000000000000000000000000000000000000000000000000000000000 MUL DUP2 MSTORE PUSH1 0x1 ADD SWAP2 POP POP PUSH1 0x40 MLOAD DUP1 SWAP2 SUB SWAP1 KECCAK256 PUSH1 0x0 NOT AND EQ ISZERO PUSH2 0x22C JUMPI DUP2 SWAP3 POP PUSH2 0x23D JUMP JUMPDEST DUP2 DUP1 PUSH1 0x1 ADD SWAP3 POP POP PUSH2 0x1C6 JUMP JUMPDEST DUP2 SWAP3 POP JUMPDEST POP POP SWAP1 JUMP STOP LOG1 PUSH6 0x627A7A723058 KECCAK256 AND 0xe1 0xd7 ADDRESS BLOCKHASH 0xbd 0xf7 PUSH25 0x582CA56D9AEC18CAC9B2DF990B470840B39AD968373064B200 0x29 "
		},
		"gasEstimates": {
			"creation": {
				"codeDepositCost": "124400",
				"executionCost": "20204",
				"totalCost": "144604"
			},
			"external": {
				"bruteForce()": "infinite",
				"guess(uint8)": "infinite",
				"isComplete()": "647"
			}
		},
		"methodIdentifiers": {
			"bruteForce()": "c1bb2493",
			"guess(uint8)": "4ba4c16b",
			"isComplete()": "b2fa1c9e"
		}
	},
	"abi": [
		{
			"constant": false,
			"inputs": [
				{
					"name": "n",
					"type": "uint8"
				}
			],
			"name": "guess",
			"outputs": [],
			"payable": true,
			"stateMutability": "payable",
			"type": "function"
		},
		{
			"constant": true,
			"inputs": [],
			"name": "isComplete",
			"outputs": [
				{
					"name": "",
					"type": "bool"
				}
			],
			"payable": false,
			"stateMutability": "view",
			"type": "function"
		},
		{
			"constant": true,
			"inputs": [],
			"name": "bruteForce",
			"outputs": [
				{
					"name": "",
					"type": "uint8"
				}
			],
			"payable": false,
			"stateMutability": "view",
			"type": "function"
		},
		{
			"inputs": [],
			"payable": true,
			"stateMutability": "payable",
			"type": "constructor"
		}
	]
}