{
	"data": {
		"bytecode": {
			"linkReferences": {},
			"object": "6080604052670de0b6b3a76400003414151561001a57600080fd5b426001819055506001430340600154604051808360001916600019168152602001828152602001925050506040518091039020600190046000806101000a81548160ff021916908360ff1602179055506102f8806100796000396000f300608060405260043610610078576000357c0100000000000000000000000000000000000000000000000000000000900463ffffffff1680634ba4c16b1461007d5780637f6c6f10146100a0578063b2fa1c9e146100cb578063bbe4fd50146100fa578063ee82ac5e14610125578063fb694a6c1461016e575b600080fd5b61009e600480360381019080803560ff1690602001909291905050506101c3565b005b3480156100ac57600080fd5b506100b5610248565b6040518082815260200191505060405180910390f35b3480156100d757600080fd5b506100e0610255565b604051808215151515815260200191505060405180910390f35b34801561010657600080fd5b5061010f610276565b6040518082815260200191505060405180910390f35b34801561013157600080fd5b5061015060048036038101908080359060200190929190505050610280565b60405180826000191660001916815260200191505060405180910390f35b34801561017a57600080fd5b506101a7600480360381019080803560001916906020019092919080359060200190929190505050610293565b604051808260ff1660ff16815260200191505060405180910390f35b670de0b6b3a7640000341415156101d957600080fd5b6000809054906101000a900460ff1660ff168160ff161415610245573373ffffffffffffffffffffffffffffffffffffffff166108fc671bc16d674ec800009081150290604051600060405180830381858888f19350505050158015610243573d6000803e3d6000fd5b505b50565b6000804390508091505090565b6000803073ffffffffffffffffffffffffffffffffffffffff163114905090565b6000600154905090565b6000806001830340905080915050919050565b600080838360405180836000191660001916815260200182815260200192505050604051809103902060019004905080915050929150505600a165627a7a72305820b0888f5c2d47ad3182823a800acb2fb26851811ca2036c5029d392c2bc3957e00029",
			"opcodes": "PUSH1 0x80 PUSH1 0x40 MSTORE PUSH8 0xDE0B6B3A7640000 CALLVALUE EQ ISZERO ISZERO PUSH2 0x1A JUMPI PUSH1 0x0 DUP1 REVERT JUMPDEST TIMESTAMP PUSH1 0x1 DUP2 SWAP1 SSTORE POP PUSH1 0x1 NUMBER SUB BLOCKHASH PUSH1 0x1 SLOAD PUSH1 0x40 MLOAD DUP1 DUP4 PUSH1 0x0 NOT AND PUSH1 0x0 NOT AND DUP2 MSTORE PUSH1 0x20 ADD DUP3 DUP2 MSTORE PUSH1 0x20 ADD SWAP3 POP POP POP PUSH1 0x40 MLOAD DUP1 SWAP2 SUB SWAP1 KECCAK256 PUSH1 0x1 SWAP1 DIV PUSH1 0x0 DUP1 PUSH2 0x100 EXP DUP2 SLOAD DUP2 PUSH1 0xFF MUL NOT AND SWAP1 DUP4 PUSH1 0xFF AND MUL OR SWAP1 SSTORE POP PUSH2 0x2F8 DUP1 PUSH2 0x79 PUSH1 0x0 CODECOPY PUSH1 0x0 RETURN STOP PUSH1 0x80 PUSH1 0x40 MSTORE PUSH1 0x4 CALLDATASIZE LT PUSH2 0x78 JUMPI PUSH1 0x0 CALLDATALOAD PUSH29 0x100000000000000000000000000000000000000000000000000000000 SWAP1 DIV PUSH4 0xFFFFFFFF AND DUP1 PUSH4 0x4BA4C16B EQ PUSH2 0x7D JUMPI DUP1 PUSH4 0x7F6C6F10 EQ PUSH2 0xA0 JUMPI DUP1 PUSH4 0xB2FA1C9E EQ PUSH2 0xCB JUMPI DUP1 PUSH4 0xBBE4FD50 EQ PUSH2 0xFA JUMPI DUP1 PUSH4 0xEE82AC5E EQ PUSH2 0x125 JUMPI DUP1 PUSH4 0xFB694A6C EQ PUSH2 0x16E JUMPI JUMPDEST PUSH1 0x0 DUP1 REVERT JUMPDEST PUSH2 0x9E PUSH1 0x4 DUP1 CALLDATASIZE SUB DUP2 ADD SWAP1 DUP1 DUP1 CALLDATALOAD PUSH1 0xFF AND SWAP1 PUSH1 0x20 ADD SWAP1 SWAP3 SWAP2 SWAP1 POP POP POP PUSH2 0x1C3 JUMP JUMPDEST STOP JUMPDEST CALLVALUE DUP1 ISZERO PUSH2 0xAC JUMPI PUSH1 0x0 DUP1 REVERT JUMPDEST POP PUSH2 0xB5 PUSH2 0x248 JUMP JUMPDEST PUSH1 0x40 MLOAD DUP1 DUP3 DUP2 MSTORE PUSH1 0x20 ADD SWAP2 POP POP PUSH1 0x40 MLOAD DUP1 SWAP2 SUB SWAP1 RETURN JUMPDEST CALLVALUE DUP1 ISZERO PUSH2 0xD7 JUMPI PUSH1 0x0 DUP1 REVERT JUMPDEST POP PUSH2 0xE0 PUSH2 0x255 JUMP JUMPDEST PUSH1 0x40 MLOAD DUP1 DUP3 ISZERO ISZERO ISZERO ISZERO DUP2 MSTORE PUSH1 0x20 ADD SWAP2 POP POP PUSH1 0x40 MLOAD DUP1 SWAP2 SUB SWAP1 RETURN JUMPDEST CALLVALUE DUP1 ISZERO PUSH2 0x106 JUMPI PUSH1 0x0 DUP1 REVERT JUMPDEST POP PUSH2 0x10F PUSH2 0x276 JUMP JUMPDEST PUSH1 0x40 MLOAD DUP1 DUP3 DUP2 MSTORE PUSH1 0x20 ADD SWAP2 POP POP PUSH1 0x40 MLOAD DUP1 SWAP2 SUB SWAP1 RETURN JUMPDEST CALLVALUE DUP1 ISZERO PUSH2 0x131 JUMPI PUSH1 0x0 DUP1 REVERT JUMPDEST POP PUSH2 0x150 PUSH1 0x4 DUP1 CALLDATASIZE SUB DUP2 ADD SWAP1 DUP1 DUP1 CALLDATALOAD SWAP1 PUSH1 0x20 ADD SWAP1 SWAP3 SWAP2 SWAP1 POP POP POP PUSH2 0x280 JUMP JUMPDEST PUSH1 0x40 MLOAD DUP1 DUP3 PUSH1 0x0 NOT AND PUSH1 0x0 NOT AND DUP2 MSTORE PUSH1 0x20 ADD SWAP2 POP POP PUSH1 0x40 MLOAD DUP1 SWAP2 SUB SWAP1 RETURN JUMPDEST CALLVALUE DUP1 ISZERO PUSH2 0x17A JUMPI PUSH1 0x0 DUP1 REVERT JUMPDEST POP PUSH2 0x1A7 PUSH1 0x4 DUP1 CALLDATASIZE SUB DUP2 ADD SWAP1 DUP1 DUP1 CALLDATALOAD PUSH1 0x0 NOT AND SWAP1 PUSH1 0x20 ADD SWAP1 SWAP3 SWAP2 SWAP1 DUP1 CALLDATALOAD SWAP1 PUSH1 0x20 ADD SWAP1 SWAP3 SWAP2 SWAP1 POP POP POP PUSH2 0x293 JUMP JUMPDEST PUSH1 0x40 MLOAD DUP1 DUP3 PUSH1 0xFF AND PUSH1 0xFF AND DUP2 MSTORE PUSH1 0x20 ADD SWAP2 POP POP PUSH1 0x40 MLOAD DUP1 SWAP2 SUB SWAP1 RETURN JUMPDEST PUSH8 0xDE0B6B3A7640000 CALLVALUE EQ ISZERO ISZERO PUSH2 0x1D9 JUMPI PUSH1 0x0 DUP1 REVERT JUMPDEST PUSH1 0x0 DUP1 SWAP1 SLOAD SWAP1 PUSH2 0x100 EXP SWAP1 DIV PUSH1 0xFF AND PUSH1 0xFF AND DUP2 PUSH1 0xFF AND EQ ISZERO PUSH2 0x245 JUMPI CALLER PUSH20 0xFFFFFFFFFFFFFFFFFFFFFFFFFFFFFFFFFFFFFFFF AND PUSH2 0x8FC PUSH8 0x1BC16D674EC80000 SWAP1 DUP2 ISZERO MUL SWAP1 PUSH1 0x40 MLOAD PUSH1 0x0 PUSH1 0x40 MLOAD DUP1 DUP4 SUB DUP2 DUP6 DUP9 DUP9 CALL SWAP4 POP POP POP POP ISZERO DUP1 ISZERO PUSH2 0x243 JUMPI RETURNDATASIZE PUSH1 0x0 DUP1 RETURNDATACOPY RETURNDATASIZE PUSH1 0x0 REVERT JUMPDEST POP JUMPDEST POP JUMP JUMPDEST PUSH1 0x0 DUP1 NUMBER SWAP1 POP DUP1 SWAP2 POP POP SWAP1 JUMP JUMPDEST PUSH1 0x0 DUP1 ADDRESS PUSH20 0xFFFFFFFFFFFFFFFFFFFFFFFFFFFFFFFFFFFFFFFF AND BALANCE EQ SWAP1 POP SWAP1 JUMP JUMPDEST PUSH1 0x0 PUSH1 0x1 SLOAD SWAP1 POP SWAP1 JUMP JUMPDEST PUSH1 0x0 DUP1 PUSH1 0x1 DUP4 SUB BLOCKHASH SWAP1 POP DUP1 SWAP2 POP POP SWAP2 SWAP1 POP JUMP JUMPDEST PUSH1 0x0 DUP1 DUP4 DUP4 PUSH1 0x40 MLOAD DUP1 DUP4 PUSH1 0x0 NOT AND PUSH1 0x0 NOT AND DUP2 MSTORE PUSH1 0x20 ADD DUP3 DUP2 MSTORE PUSH1 0x20 ADD SWAP3 POP POP POP PUSH1 0x40 MLOAD DUP1 SWAP2 SUB SWAP1 KECCAK256 PUSH1 0x1 SWAP1 DIV SWAP1 POP DUP1 SWAP2 POP POP SWAP3 SWAP2 POP POP JUMP STOP LOG1 PUSH6 0x627A7A723058 KECCAK256 0xb0 DUP9 DUP16 0x5c 0x2d 0x47 0xad BALANCE DUP3 DUP3 GASPRICE DUP1 EXP 0xcb 0x2f 0xb2 PUSH9 0x51811CA2036C5029D3 SWAP3 0xc2 0xbc CODECOPY JUMPI 0xe0 STOP 0x29 "
		},
		"gasEstimates": {
			"creation": {
				"codeDepositCost": "152000",
				"executionCost": "40845",
				"totalCost": "192845"
			},
			"external": {
				"bruteForce(bytes32,uint256)": "579",
				"getBlockHash(uint256)": "408",
				"getBlockNum()": "236",
				"getNow()": "468",
				"guess(uint8)": "infinite",
				"isComplete()": "669"
			}
		},
		"methodIdentifiers": {
			"bruteForce(bytes32,uint256)": "fb694a6c",
			"getBlockHash(uint256)": "ee82ac5e",
			"getBlockNum()": "7f6c6f10",
			"getNow()": "bbe4fd50",
			"guess(uint8)": "4ba4c16b",
			"isComplete()": "b2fa1c9e"
		}
	},
	"abi": [
		{
			"constant": false,
			"inputs": [
				{
					"name": "n",
					"type": "uint8"
				}
			],
			"name": "guess",
			"outputs": [],
			"payable": true,
			"stateMutability": "payable",
			"type": "function"
		},
		{
			"constant": true,
			"inputs": [],
			"name": "getBlockNum",
			"outputs": [
				{
					"name": "",
					"type": "uint256"
				}
			],
			"payable": false,
			"stateMutability": "view",
			"type": "function"
		},
		{
			"constant": true,
			"inputs": [],
			"name": "isComplete",
			"outputs": [
				{
					"name": "",
					"type": "bool"
				}
			],
			"payable": false,
			"stateMutability": "view",
			"type": "function"
		},
		{
			"constant": true,
			"inputs": [],
			"name": "getNow",
			"outputs": [
				{
					"name": "",
					"type": "uint256"
				}
			],
			"payable": false,
			"stateMutability": "view",
			"type": "function"
		},
		{
			"constant": true,
			"inputs": [
				{
					"name": "blockNum",
					"type": "uint256"
				}
			],
			"name": "getBlockHash",
			"outputs": [
				{
					"name": "",
					"type": "bytes32"
				}
			],
			"payable": false,
			"stateMutability": "view",
			"type": "function"
		},
		{
			"constant": true,
			"inputs": [
				{
					"name": "blockHash",
					"type": "bytes32"
				},
				{
					"name": "thisNow",
					"type": "uint256"
				}
			],
			"name": "bruteForce",
			"outputs": [
				{
					"name": "",
					"type": "uint8"
				}
			],
			"payable": false,
			"stateMutability": "view",
			"type": "function"
		},
		{
			"inputs": [],
			"payable": true,
			"stateMutability": "payable",
			"type": "constructor"
		}
	]
}